:0600000021C0FECFFDCF80
:10000600FCCFFBCFFACFF9CFF8CFF7CFF6CFF5CFAE
:10001600F4CFF3CFF2CFF1CFF0CFEFCFEECFEDCFDE
:100026000100000001002D4E414E00494E460000E1
:100036000400040026000100B0012A000000F89424
:10004600EE27ECBBF1E0FBBFEBBFE5BFF8E1F1BD8E
:10005600E1BD8DE0A2E0BB27ED938A95E9F780E04C
:1000660094E0A0E6ED930197E9F7E6E3F0E08591E9
:100076009591009761F0A591B59105901590BF01F6
:10008600F00105900D920197E1F7FB01F0CFEFE546
:10009600EDBFE4E0EEBFC0E6D1E008C1BA93AA9393
:1000A60005D278D120E030E075D1EC81FD810E17C4
:1000B6001F0774F553D1DF01E4E0F0E0E5D1319696
:1000C6009F016BD1EA0FFB1F208331836CD16ED168
:1000D60021F4C39A6ED1C3986CD1E2E0F0E066D108
:1000E60021F4C29A66D1C29864D1E3E0F0E05ED111
:1000F60021F4C19A5ED1C1985CD1E4E0F0E056D11A
:1001060021F4C09A56D1C09854D10F5F1F4FCDCF5E
:10011600D2D126960895BA93AA93CAD13BD13AD1A1
:10012600EA81FB810E171F070CF04FC0B49B08C075
:10013600B59B06C0B69B04C0B79B02C03DD109F073
:1001460001C0F4CFA0E0B499A1E0A03011F434D1FD
:1001560009F004C035D1E4E0F0E03AD1A0E0B59969
:10016600A1E0A03011F428D109F004C029D1E3E0C0
:10017600F0E02ED1A0E0B699A1E0A03011F41CD198
:1001860009F004C01DD1E2E0F0E022D1A0E0B79969
:10019600A1E0A03011F410D109F003C011D103D1B0
:1001A60017D10ED10D901C90F8D0AE0FBF1F7AD18B
:1001B600E015F10539F0F7D02F01979AFAD0979804
:1001C600F2D03F010F5F1F4FABCFE0918801F09156
:1001D6008901A0916001B0916101FDD009F05CC078
:1001E600A0916201B0916301E0918A01F0918B01C7
:1001F600F2D009F051C0A0916401B0916501E0917F
:100206008C01F0918D01E7D009F046C0A0916601FE
:10021600B0916701E0918E01F0918F01DCD0E1F59C
:10022600A0916801B0916901E0919001F09191016E
:10023600D2D091F5A0916A01B0916B01E091920143
:10024600F0919301C8D041F5A0916C01B0916D0178
:10025600E0919401F0919501BED0F1F4A0916E0168
:10026600B0916F01E0919601F0919701B4D0A1F49D
:10027600A0917001B0917101E0919801F0919901FE
:10028600AAD051F4A0917201B0917301E0919A0144
:10029600F0919B01A0D009F006C0F20131962F0122
:1002A600969A87D0969809D124960895EFE0E7BBF1
:1002B600E0EFE8BBE0E0E4BBE5BBE0ECE1BBE0E29D
:1002C600E2BBE0E0E3BFE2BFEFBDEEBDEDBDECBDDE
:1002D600E7BDE6BDEBBDEABDE9BDE8BDE2BDE5BDF6
:1002E600E4BDE3BDE9BFE5BFEAB9E0E8E8B9E0E0AF
:1002F600E0BFE6B9EDB9E6BF2297E0E0E883E9831F
:10030600D201CCDEA4E6B0E07ED0B49B06C0B59B9D
:1003160004C0B69B02C0B79901C001C0F6CFD20196
:10032600FADE662477245AD0A881B981549734F42A
:1003360059D0A0E6B1E059D061D0F6CF4FD04ED01B
:10034600A881B981549734F44DD0A8E8B1E04DD0D6
:1003560055D0F6CF43D02296CFCFFFCFE091B00154
:10036600F091B1016091B2017091B301ADE6BEE4C6
:1003760086EC91E456D0EE59F8486F4F7F4FE093E4
:10038600B001F093B1016093B2017093B301FB0128
:10039600FF77089500E010E00895F801A0E6B1E0C7
:1003A600EE0FFF1F0895E1E0F0E00895E217F3076E
:1003B6000895A4EFB1E027C00024061407040895A9
:1003C600F801A8E8B1E0EE0FFF1FAE0FBF1F0895BA
:1003D600ED93FC93EECFEA17FB070895E0E0E88380
:1003E600E9830895E881F9810895EE0FFF1FAE0FA6
:1003F600BF1FE0E0F0E0ED93FC930895F3DF319644
:10040600E883F9830895109639F080ED97E0019717
:10041600F1F7A8951197C9F70895F195E195F04080
:1004260008957A9F702D6B9F700DF89F700DE99F50
:10043600700D6A9F602D710DFB9F600D711DE89F09
:10044600600D711D8827FA9FF02D610D781FEB9FB7
:10045600F00D611D781FEA9FE02DF10D681F781FD2
:1004660008950024112490E1AA0FBB1F001C111C43
:100476000E1A1F0A18F40E0E1F1E01C0A1609A95CF
:1004860099F7FD01D0010895E894B7FF04C0A0953F
:10049600B09511966894F7FDC0DFE3DFFD010EF419
:1004A600BCDF0895ED91FC91119708953A932A9334
:1004B6001A930A9308953B812A8119810881089528
:00000001FF
